ACPI: RSDP 0x00000000AF7FE014 000024 (v02 TOSASU)
ACPI: RSDT 0x00000000AF7FE124 000070 (v01 TOSASU TOSASU00 00000100      01000013)
ACPI: XSDT 0x00000000AF7FE210 0000BC (v01 TOSASU TOSASU00 00000100      01000013)
ACPI: DSDT 0x00000000AF7DC000 019F8A (v01 TOSASU TOSASU00 00000001 ACPI 00040000)
ACPI: FACS 0x00000000AF7AA000 000040
ACPI: FACP 0x00000000AF7F9000 00010C (v05 TOSASU TOSASU00 00000100 ACPI 00040000)
ACPI: ECDT 0x00000000AF7FD000 0000C1 (v01 TOSASU TOSASU00 00000001 ACPI 00040000)
ACPI: MSDM 0x00000000AF7FC000 000055 (v03 TOSASU TOSASU00 06222004 ACPI 00040000)
ACPI: UEFI 0x00000000AF7FB000 000236 (v01 TOSASU TOSASU00 00000001 ACPI 00040000)
ACPI: ASF! 0x00000000AF7FA000 0000A5 (v32 TOSASU TOSASU00 00000001 ACPI 00040000)
ACPI: HPET 0x00000000AF7F8000 000038 (v01 TOSASU TOSASU00 00000001 ACPI 00040000)
ACPI: APIC 0x00000000AF7F7000 00008C (v03 TOSASU TOSASU00 00000001 ACPI 00040000)
ACPI: MCFG 0x00000000AF7F6000 00003C (v01 TOSASU TOSASU00 00000001 ACPI 00040000)
ACPI: SLIC 0x00000000AF7DB000 000176 (v01 TOSASU TOSASU00 00000001 ACPI 00040000)
ACPI: WDAT 0x00000000AF7DA000 000224 (v01 TOSASU TOSASU00 00000001 ACPI 00040000)
ACPI: SSDT 0x00000000AF7D8000 001068 (v01 TOSASU TOSASU00 00001000 ACPI 00040000)
ACPI: BOOT 0x00000000AF7D6000 000028 (v01 TOSASU TOSASU00 00000001 ACPI 00040000)
ACPI: ASPT 0x00000000AF7D4000 000034 (v07 TOSASU TOSASU00 00000001 ACPI 00040000)
ACPI: DBGP 0x00000000AF7D3000 000034 (v01 TOSASU TOSASU00 00000001 ACPI 00040000)
ACPI: FPDT 0x00000000AF7D1000 000044 (v01 TOSASU TOSASU00 00000001 ACPI 00040000)
ACPI: SSDT 0x00000000AF7CF000 0008F5 (v01 TOSASU TOSASU00 00003000 ACPI 00040000)
ACPI: SSDT 0x00000000AF7CE000 000B22 (v01 TOSASU TOSASU00 00003000 ACPI 00040000)
ACPI: VFCT 0x00000000AF7C8000 005684 (v01 TOSASU TOSASU00 00000001 ACPI 00040000)
ACPI: BGRT 0x00000000AF7C7000 000038 (v01 TOSASU TOSASU00 00000001 ACPI 00040000)
ACPI: SSDT 0x0000000000000000 00083B (v01 PmRef  Cpu0Cst  00003001 INTL 20120111)
ACPI: SSDT 0x0000000000000000 000303 (v01 PmRef  ApIst    00003000 INTL 20120111)
ACPI: SSDT 0x0000000000000000 000119 (v01 PmRef  ApCst    00003000 INTL 20120111)
